{
  "contractName": "Timelock",
  "abi": [
    {
      "anonymous": false,
      "inputs": [
        {
          "indexed": true,
          "internalType": "address",
          "name": "owner",
          "type": "address"
        },
        {
          "indexed": true,
          "internalType": "address",
          "name": "token",
          "type": "address"
        },
        {
          "indexed": false,
          "internalType": "uint256",
          "name": "amount",
          "type": "uint256"
        },
        {
          "indexed": false,
          "internalType": "uint256",
          "name": "deadline",
          "type": "uint256"
        }
      ],
      "name": "Locked",
      "type": "event"
    },
    {
      "inputs": [
        {
          "internalType": "address",
          "name": "_token",
          "type": "address"
        },
        {
          "internalType": "uint256",
          "name": "_amount",
          "type": "uint256"
        },
        {
          "internalType": "uint256",
          "name": "_deadline",
          "type": "uint256"
        }
      ],
      "name": "lock",
      "outputs": [],
      "stateMutability": "nonpayable",
      "type": "function"
    },
    {
      "inputs": [
        {
          "internalType": "uint256",
          "name": "_index",
          "type": "uint256"
        }
      ],
      "name": "withdraw",
      "outputs": [],
      "stateMutability": "nonpayable",
      "type": "function"
    }
  ],
  "bytecode": "0x608060405234801561001057600080fd5b50610a42806100206000396000f3fe608060405234801561001057600080fd5b50600436106100365760003560e01c80632e1a7d4d1461003b578063e2ab691d14610057575b600080fd5b61005560048036038101906100509190610745565b610073565b005b610071600480360381019061006c91906106f2565b610466565b005b60008060003373ffffffffffffffffffffffffffffffffffffffff1673ffffffffffffffffffffffffffffffffffffffff16815260200190815260200160002082815481106100c5576100c461092f565b5b90600052602060002090600502016040518060a00160405290816000820160009054906101000a900473ffffffffffffffffffffffffffffffffffffffff1673ffffffffffffffffffffffffffffffffffffffff1673ffffffffffffffffffffffffffffffffffffffff1681526020016001820160009054906101000a900473ffffffffffffffffffffffffffffffffffffffff1673ffffffffffffffffffffffffffffffffffffffff1673ffffffffffffffffffffffffffffffffffffffff16815260200160028201548152602001600382015481526020016004820160009054906101000a900460ff1615151515815250509050806000015173ffffffffffffffffffffffffffffffffffffffff163373ffffffffffffffffffffffffffffffffffffffff161461022d576040517f08c379a000000000000000000000000000000000000000000000000000000000815260040161022490610859565b60405180910390fd5b806080015115610272576040517f08c379a000000000000000000000000000000000000000000000000000000000815260040161026990610879565b60405180910390fd5b428160600151106102b8576040517f08c379a00000000000000000000000000000000000000000000000000000000081526004016102af90610899565b60405180910390fd5b6001816080019015159081151581525050806000803373ffffffffffffffffffffffffffffffffffffffff1673ffffffffffffffffffffffffffffffffffffffff168152602001908152602001600020838154811061031a5761031961092f565b5b906000526020600020906005020160008201518160000160006101000a81548173ffffffffffffffffffffffffffffffffffffffff021916908373ffffffffffffffffffffffffffffffffffffffff16021790555060208201518160010160006101000a81548173ffffffffffffffffffffffffffffffffffffffff021916908373ffffffffffffffffffffffffffffffffffffffff160217905550604082015181600201556060820151816003015560808201518160040160006101000a81548160ff021916908315150217905550905050806020015173ffffffffffffffffffffffffffffffffffffffff16634847a79c3383604001516040518363ffffffff1660e01b8152600401610430929190610830565b600060405180830381600087803b15801561044a57600080fd5b505af115801561045e573d6000803e3d6000fd5b505050505050565b8273ffffffffffffffffffffffffffffffffffffffff1663cb7125353330856040518463ffffffff1660e01b81526004016104a3939291906107f9565b600060405180830381600087803b1580156104bd57600080fd5b505af11580156104d1573d6000803e3d6000fd5b5050505060006040518060a001604052803373ffffffffffffffffffffffffffffffffffffffff1681526020018573ffffffffffffffffffffffffffffffffffffffff1681526020018481526020018381526020016000151581525090506000803373ffffffffffffffffffffffffffffffffffffffff1673ffffffffffffffffffffffffffffffffffffffff16815260200190815260200160002081908060018154018082558091505060019003906000526020600020906005020160009091909190915060008201518160000160006101000a81548173ffffffffffffffffffffffffffffffffffffffff021916908373ffffffffffffffffffffffffffffffffffffffff16021790555060208201518160010160006101000a81548173ffffffffffffffffffffffffffffffffffffffff021916908373ffffffffffffffffffffffffffffffffffffffff160217905550604082015181600201556060820151816003015560808201518160040160006101000a81548160ff02191690831515021790555050508373ffffffffffffffffffffffffffffffffffffffff163373ffffffffffffffffffffffffffffffffffffffff167f967ad762aa9070ada8db64577288e214771e89667066ae38e8750cb8a86c542985856040516106ba9291906108b9565b60405180910390a350505050565b6000813590506106d7816109de565b92915050565b6000813590506106ec816109f5565b92915050565b60008060006060848603121561070b5761070a61095e565b5b6000610719868287016106c8565b935050602061072a868287016106dd565b925050604061073b868287016106dd565b9150509250925092565b60006020828403121561075b5761075a61095e565b5b6000610769848285016106dd565b91505092915050565b61077b816108f3565b82525050565b600061078e600d836108e2565b915061079982610963565b602082019050919050565b60006107b16010836108e2565b91506107bc8261098c565b602082019050919050565b60006107d46009836108e2565b91506107df826109b5565b602082019050919050565b6107f381610925565b82525050565b600060608201905061080e6000830186610772565b61081b6020830185610772565b61082860408301846107ea565b949350505050565b60006040820190506108456000830185610772565b61085260208301846107ea565b9392505050565b6000602082019050818103600083015261087281610781565b9050919050565b60006020820190508181036000830152610892816107a4565b9050919050565b600060208201905081810360008301526108b2816107c7565b9050919050565b60006040820190506108ce60008301856107ea565b6108db60208301846107ea565b9392505050565b600082825260208201905092915050565b60006108fe82610905565b9050919050565b600073ffffffffffffffffffffffffffffffffffffffff82169050919050565b6000819050919050565b7f4e487b7100000000000000000000000000000000000000000000000000000000600052603260045260246000fd5b600080fd5b7f6e6f7420746865206f776e657200000000000000000000000000000000000000600082015250565b7f776974686472657720616c726561647900000000000000000000000000000000600082015250565b7f746f6f206561726c790000000000000000000000000000000000000000000000600082015250565b6109e7816108f3565b81146109f257600080fd5b50565b6109fe81610925565b8114610a0957600080fd5b5056fea264697066735822122060c9d593b6f5fe8c4c50d1d74e87f9889c0f27e07db4445ed808f21544c490ab64736f6c63430008070033",
  "immutableReferences": {},
  "source": "// SPDX-License-Identifier: MIT\r\npragma solidity ^0.8.7;\r\n\r\ninterface IERC20 {\r\n   function _transferFrom(address from, address to, uint256 amount) external;\r\n   function _transfer(address to, uint256 amount) external;\r\n}\r\n\r\ncontract Timelock {\r\n\r\n    event Locked(address indexed owner, address indexed token, uint256 amount, uint256 deadline);\r\n\r\n     struct Lock {\r\n         address owner;\r\n         address token;\r\n         uint256 amount;\r\n         uint256 deadline;\r\n         bool withdrawn;\r\n     }\r\n\r\n     mapping(address => Lock[]) userToLocks;\r\n\r\n     function lock(address _token, uint256 _amount, uint256 _deadline) public {\r\n         IERC20(_token)._transferFrom(msg.sender, address(this), _amount);\r\n         Lock memory newLock = Lock(msg.sender, _token, _amount, _deadline,false);\r\n         userToLocks[msg.sender].push(newLock);\r\n         emit Locked(msg.sender,_token,_amount,_deadline);\r\n     }\r\n\r\n    // CHECK; EFFECTS; INTERACTIONS\r\n\r\n     function withdraw(uint _index) public {\r\n        Lock memory temp = userToLocks[msg.sender][_index];\r\n        require(msg.sender == temp.owner, 'not the owner');\r\n        require(!temp.withdrawn, 'withdrew already');\r\n        require(temp.deadline < block.timestamp, 'too early');\r\n        temp.withdrawn = true;\r\n        userToLocks[msg.sender][_index] = temp;\r\n        IERC20(temp.token)._transfer(msg.sender, temp.amount);\r\n     }\r\n}\r\n\r\n",
  "sourcePath": "C:\\Users\\LocoTheDev\\Documents\\TimeLock\\contracts\\Timelock.sol",
  "compiler": {
    "name": "solc",
    "version": "0.8.7+commit.e28d00a7.Emscripten.clang"
  },
  "schemaVersion": "3.4.3",
  "updatedAt": "2021-10-03T11:05:56.911Z",
  "devdoc": {
    "kind": "dev",
    "methods": {},
    "version": 1
  },
  "userdoc": {
    "kind": "user",
    "methods": {},
    "version": 1
  }
}